:020000040800F2
:100000008808002089010008A93000089D24000804
:10001000A530000831030008D531000800000000B9
:10002000000000000000000000000000B1300008E7
:100030003503000800000000AD300008B5300008AE
:10004000A3010008A3010008A3010008A301000800
:10005000A3010008A3010008A3010008A3010008F0
:10006000A3010008A3010008A3010008A3010008E0
:10007000A3010008A3010008A3010008A3010008D0
:10008000A3010008A3010008A3010008A3010008C0
:10009000A3010008A3010008A3010008A3010008B0
:1000A000A3010008A3010008A3010008A3010008A0
:1000B000A3010008A3010008A3010008A301000890
:1000C000A3010008A3010008A3010008A301000880
:1000D000A3010008C9310008A3010008A30100081A
:1000E000A3010008A3010008A301000800F002F822
:1000F00000F03AF80AA090E8000C82448344AAF188
:100100000107DA4501D100F02FF8AFF2090EBAE885
:100110000F0013F0010F18BFFB1A43F0010318473B
:100120005C4200007C420000103A24BF78C878C1CD
:10013000FAD8520724BF30C830C144BF04680C60ED
:10014000704700000023002400250026103A28BF35
:1001500078C1FBD8520728BF30C148BF0B60704739
:100160001FB51FBD10B510BD00F0A8F81146FFF770
:10017000F7FF03F031F800F0C6F803B4FFF7F2FF21
:1001800003BC00F0CDF8000009488047094800474B
:10019000FEE7FEE7FEE7FEE7FEE7FEE7FEE7FEE737
:1001A000FEE7FEE704480549054A064B7047000094
:1001B000B9300008ED0000088802002088080020FF
:1001C0008804002088040020032A40F2308010F0C8
:1001D000030C00F0158011F8013BBCF1020F6244E2
:1001E00098BF11F801CB00F8013B38BF11F8013B73
:1001F000A2F1040298BF00F801CB38BF00F8013B20
:1002000011F0030300F02880083AC0F0088051F88C
:10021000043B083A51F804CBA0E80810F5E7121D9A
:100220005CBF51F8043B40F8043BAFF30080D207B9
:1002300024BF11F8013B11F801CB48BF11F8012B85
:1002400024BF00F8013B00F801CB48BF00F8012BA8
:10025000704770477047704710B5203AC0F00B8068
:10026000B1E81850A0E81850B1E81850A0E81850AC
:10027000203ABFF4F5AF5FEA027C24BFB1E8185022
:10028000A0E8185044BF18C918C0BDE810405FEA84
:10029000827C24BF51F8043B40F8043B08BF704700
:1002A000D20728BF31F8023B48BF11F8012B28BF05
:1002B00020F8023B48BF00F8012B7047754600F05C
:1002C0002BF8AE4605006946534620F007008546E8
:1002D00018B020B5FFF766FFBDE820404FF00006DC
:1002E0004FF000074FF000084FF0000BAC46ACE8B1
:1002F000C009ACE8C009ACE8C009ACE8C00921F00D
:1003000007018D46704710B50446AFF300802046C4
:10031000BDE81040FFF731BF0048704710000020D3
:1003200001491820ABBEFEE726000200704700001E
:10033000FEE7000070470000EFF3108072B600BFC8
:10034000FEE70000014690F82100022816D1086857
:10035000D1E90FC3026822F00E020260026822F0A7
:1003600001020260012000FA03F2CCF8042081F8B7
:1003700021000020002281F820207047042088639B
:100380000120002281F820207047000080B590F8FD
:100390002110022924D10268116821F00E01116098
:1003A0002F211368C4F202018A4240F20401C4F210
:1003B000020123F00103136016DD3023C4F20203AF
:1003C0009A421DD04423C4F202039A421CD05823FF
:1003D000C4F202039A421DD14FF4803322E000BFE1
:1003E00004218163012080BD0823C4F202039A42E4
:1003F0000ED01C23C4F202039A420BD1102311E049
:100400004FF480730EE000BF4FF480530AE000BF4A
:10041000012307E001F1680C4FF08073624508BFCB
:100420004FF480130B60012180F82110426B0021F2
:1004300080F820100AB190470021084680BD0000D6
:100440002DE9F04F82B041F20042C4F201020E6881
:100450000423904208BF0323002E009300F0F6808F
:1004600040F2004C4FF6FF7E0022C4F2010C012442
:10047000C1F2100E4FF0000A4FF0000947E000BF34
:10048000012502F00C040F27A7402BEA070705FA05
:1004900004F43C4343F82640D1F804B040F20C4544
:1004A0005FEACB23DCF8083054BF23EA080343EAB1
:1004B0000803C4F20105CCF808302B685FEA8B24EE
:1004C00054BF23EA080343EA08032B605FEA8B3436
:1004D000DCF8043054BF23EA080343EA08035FEA68
:1004E000CB34CCF80430DCF800304FF0010454BFBA
:1004F00023EA080343EA0803CCF800300E680AF147
:10050000010A36FA0AF302F1040200F09F8004FAAD
:100510000AF816EA080FF1D04B68734512DC122B6B
:1005200056D8DFE803F0350B454955555555555517
:10053000555555555555554D510000BFD1F80C90A6
:1005400046E000BF4FF6FF75C1F22105AB420FDC5C
:100550000025C1F21105AB421AD00025C1F21205E7
:10056000AB4215D00025C1F22105AB4210D02FE0DF
:100570000025C1F22205AB420AD00025C1F23105A7
:10058000AB4205D00025C1F23205AB4220D100BFFD
:100590008B684BB1012B14BFC0F81480C0F81080D9
:1005A0004FF0080914E000BF4FF0040910E000BF4D
:1005B000CB6803F108090BE04FF0000908E000BF29
:1005C000CB6803F1040903E0CB6803F10C0900BF19
:1005D00013460546BAF1080F24BF203B04352E68A8
:1005E0000F279F40BE4309FA03F333432B60CB79B7
:1005F000DB067FF583AF41F21804C4F202042368DE
:100600004FEA9A0643F001032360236840F6000492
:1006100003F001030193019BACF57E7353F826B000
:10062000C4F20104A0420FD040F60044C4F2010419
:10063000A0423FF425AF41F20004C4F20104009D42
:10064000A04208BF02251CE700251AE702B0BDE85A
:10065000F08F0000002A08BF090401617047000004
:1006600040F28020C2F200000068704770B5B8B355
:10067000044690F83D0028B9002084F83C0020464C
:1006800000F00CFB242084F83D002068016821F074
:1006900001010160016841F400410160016821F439
:1006A0000041016000F0CCFC48F28041C0F21E0124
:1006B00040F60013D4F804E088424FF00001C0F285
:1006C0003D0348F2A16C4FF0000238BF012198426F
:1006D000C0F2010C38BF0122E64538BF0A460AB114
:1006E000012070BD4DF68361C4F21B31A0FB0112E5
:1006F0002168950C4B684FF4967623F03F0343EA4C
:100700009243754344F6D3564B60C1F262060B6ABE
:10071000A5FB0656B50923F03F03E64538BF950C07
:100720006A1C1A430A62CA6948F2A0664CF6FF7353
:10073000C0F20106B64522EA03020BD801384FEA9F
:100740004E03B0FBF3F001306FF31F30042898BF65
:1007500004201EE0A368013863B119230EFB03F3E4
:10076000B0FBF3F001306FF31F3078B100F580403B
:1007700008E000BF0EEB4E03B0FBF3F001306FF367
:100780001F3028B100F5004003E000BF012000E069
:1007900001201043C8610868D4E9072320F0C00095
:1007A000104318430860886848F2FF3204F10C06D1
:1007B00090434CCE18431043A5698860C86820F068
:1007C000FF0030432843C860086840F0010008601B
:1007D00000202021206484F83D10206384F83E002E
:1007E00070BD00002DE9F04F85B004460020994609
:1007F00016460F460490FFF733FF94F83D1020296A
:1008000027D10546206800BF816989071CD5FFF7FD
:1008100027FF411B20681A29F6D381698907F3D580
:1008200000202021206384F83D1084F83E00206CD5
:1008300004F13C0A40F020002064022000218AF8E4
:10084000001005B0BDE8F08FA2461AF83C1F012940
:1008500004D1022005B0BDE8F08F00BF01228AF864
:1008600000200368DDE90F180E9ADB0703D1036847
:1008700043F001030360036823F400630360222054
:1008800084F83D00402084F83E000020206462622D
:100890006185608D394620850020CFF6FF70E062CB
:1008A000204632464B46CDF80080019501F0F8FD18
:1008B00020B1012005B0BDE8F08F00BF208D0228D7
:1008C00010D0012824D0002838D1002003902068BF
:1008D00041690391816903910399016841F40071B1
:1008E000016037E02068016841F400610160EFF3C6
:1008F000108072B6002003902068416903918169DD
:1009000003910399016821F48061016062B621E0DE
:100910002068016821F480610160EFF3108072B6F5
:100920000020039020684169039181690391039934
:10093000016841F40071016062B60BE02068016853
:1009400041F4806101600021039141690391806954
:1009500003900398208D002800F0D480042740F2F3
:1009600008094BF2895BC0F20107C2F20009C1F22B
:10097000F84B232617E000BF204641462A4602F0E6
:1009800039F8002895D12068616A00690870606AAA
:10099000218D01306062481E2085618D013961859D
:1009A000010400F0AF8080B2032867D8022800F06D
:1009B00089800128E0D02046394600224346009530
:1009C00001F0BEFE00287FF474AF2068016821F4B6
:1009D00080610160EFF3108072B62068616A00697F
:1009E0000870606A218D0130013960622185618D56
:1009F00001396185D9F80010C908A1FB0B12110A51
:100A0000714304910499013904910499002900F07B
:100A1000858021684A6952071ED4049901390491DE
:100A20000499002900F07A8021684A69520713D49A
:100A3000049901390491049900296FD021684A6909
:100A4000520709D40499013904910499002965D009
:100A500021684A695207D5D50A6842F400720A60D3
:100A600009690170606A218D01306062481E20852D
:100A7000608D0138608562B685E700BF204641463B
:100A80002A4601F0B7FF00287FF413AF2068616A9F
:100A900000690870606A2268411C208D616201381B
:100AA0002085638D013B638553695B077FF578AFD4
:100AB00080B2032803D1106820F4806010601069B0
:100AC00064E700BF2046394600224346009501F006
:100AD00037FE00287FF4EDAEEFF3108072B6206889
:100AE000616A026842F40072026000690870606A1C
:100AF000218D01306062481E2085608D013860853F
:100B000062B640E7202084F83D00002084F83E00D3
:100B100000218AF8001005B0BDE8F08F00202021E8
:100B2000206384F83D1084F83E00206C40F02000E3
:100B3000206462B6012000218AF8001005B0BDE8EB
:100B4000F08F00002DE9F04383B0994616460F461A
:100B50000446FFF785FD94F83D10202920D1054675
:100B6000206800BF8169890716D5FFF779FD411B11
:100B700020681A29F6D381698907F3D5002020213E
:100B8000206384F83D1084F83E00216C41F0200180
:100B9000216484F83C0003E094F83C10012903D15F
:100BA000022003B0BDE8F083012284F83C200368F2
:100BB000DDE90B180A9ADB0703D1036843F0010350
:100BC0000360036823F400630360212084F83D0080
:100BD000402084F83E000020206462626185608DC0
:100BE000394620850020CFF6FF70E062204632466D
:100BF0004B46CDF80080019501F0DEFC20B10120CC
:100C000003B0BDE8F08300BF208D98B9204641466F
:100C10002A4601F035FD88B3206C0428EFD1206806
:100C2000016841F400710160012003B0BDE8F08368
:100C30000004EBD0204641462A4601F023FF00285D
:100C4000EAD1616A2268084610F8013B1361238DDE
:100C50006062581E2085678D013F678557697F0751
:100C6000E6D50704E4D048781061881C6062981EBD
:100C70002085618D01396185DAE700BF2068016850
:100C800041F400710160202084F83D00002084F8C8
:100C90003E0084F83C0003B0BDE8F08310B586B098
:100CA000006845F20042C4F2000200219042049123
:100CB00002D006B010BD00BF41F21804C4F2020415
:100CC000206802A940F008002060206800F00800B9
:100CD000019001984FF4407002901220039003207D
:100CE000059040F60040C4F20100FFF7A9FB042084
:100CF000C4F20100016841F0E06141F002010160CD
:100D0000606840F400106060606800F400100190BA
:100D1000019806B010BD000040F2000040F28021B2
:100D2000C2F20000C2F2000100780A6810440860B4
:100D30007047000080B542F20000C4F20200016872
:100D400041F010010160032000F08AF80F2000F04C
:100D500005F800F027F8002080BD000070B540F2D3
:100D60000006C2F2000640F208013278C2F2000129
:100D70004FF47A730968B3FBF2F20446B1FBF2F167
:100D8000084600F05FFB0F2C4FF0010508D838B97A
:100D90004FF0FF3021460022002500F035F8746046
:100DA000284670BD82B041F21800C4F2020001680A
:100DB000022241F001010160016801F0010101918D
:100DC0000199416841F080514160406800F08050D5
:100DD000009000980420C4F20100016862F31A61D7
:100DE000016002B070470000002848BF704700F063
:100DF0001F01012202FA01F14EF200124009CEF267
:100E0000000242F82010704710B54EF60C5CCEF28E
:100E1000000CDCF80030C3F3022E8EF00704042C23
:100E200028BF0424BEF103034FF0FF3E0EFA04F482
:100E300038BF0023A14399400EFA03F39A431143AC
:100E400000F00F02043A624409010C3200F16043E1
:100E5000B0F1FF3FC8BF03F56442117010BD000040
:100E60004EF60C51CEF200010A684FF6FF031A400D
:100E700060F30A2242F0806040F0FD700860704725
:100E80002DE9F04381B0002800F0858042F200088F
:100E9000C4F202080446D8F800000D4600F007002E
:100EA00088420CD2D8F8000020F007002843C8F888
:100EB0000000D8F8000000F00700A8426BD12068BD
:100EC00041F204098107C4F2020917D5410705D58B
:100ED000D9F8001041F4E061C9F80010010705D508
:100EE000D9F8001041F46051C9F80010D9F8001089
:100EF000A26821F0F0011143C9F80010C00741D1E8
:100F0000D8F8000000F00700A8420CD9D8F800007B
:100F100020F007002843C8F80000D8F8000000F0CF
:100F20000700A84237D12068410707D5D9F800103B
:100F3000E26821F4E0611143C9F80010000708D508
:100F4000D9F80000216920F4605040EAC100C9F8D6
:100F50000000D9F8002002F00C00082841F200201F
:100F6000C0F27A0050D144F2F423C2F38341C0F6B8
:100F70000003595CD2033BD440F60010C0F23D00A0
:100F8000484341E0606802280AD001282AD159F874
:100F9000041C890308D4012001B0BDE8F08300BF20
:100FA00059F8041C8901F6D5D9F8001021F0030185
:100FB0000843C9F80000FFF753FB064641F28837A3
:100FC000D9F80000616800F00C00B0EB810F97D0F9
:100FD000FFF746FB801BB842F2D9032001B0BDE801
:100FE000F08300BF59F8041C8907D4D5DCE700BFA3
:100FF000D9F8002044F2F223C2F34042C0F60003C5
:101000009A5C4843B0FBF2F0D9F8001044F2DA22BF
:10101000C1F30311C0F60002515C40F2080220FA4D
:1010200001F140F20400C2F200000068C2F20002C6
:101030001160FFF793FE002001B0BDE8F0830000CF
:1010400040F2080041F20401C2F20000C4F20201C1
:101050000068096844F2EA22C1F30221C0F60002E6
:10106000515CC8407047000040F2080041F20401A2
:10107000C2F20000C4F202010068096844F2EA22E8
:10108000C1F3C221C0F60002515CC84070470000A5
:101090002DE9F04182B0002868D00446007841F282
:1010A0000006C007C4F2020625D0706800F00C00EC
:1010B00004281BD0706800F00C00082802D170686A
:1010C000C00313D46068002800F06881B0F5A02F39
:1010D00000F07C81B0F5803F00F07C81306820F426
:1010E00080303060306820F4802076E13068800302
:1010F00001D56068D0B32078800718D5706810F0EB
:101100000C0F07D0706800F00C0008286ED17068D2
:10111000C0036BD43068800702D52069012825D12F
:101120003068616920F0F80040EAC1003060207842
:1011300000071FD42078400732D4E56995B1706864
:1011400000F00C00082840F08F80012D0ED0706850
:10115000216A00F480328A4208D1616A00F470107A
:10116000884203D1002002B0BDE8F081012002B026
:10117000BDE8F081A069002862D00020C4F24220BE
:101180000121C0F88014FFF76BFA0546706A8007EA
:1011900000F18C80FFF764FA401B0228F6D92AE19F
:1011A000F06910F0805808D1F06940F08050F0618B
:1011B000F06900F080500090009847F20007C4F2F8
:1011C00000073868C00529D4386840F4807038605A
:1011D000FFF746FA054600BF3868C0051ED4FFF782
:1011E0003FFA401B6428F7D905E100BF20690028B9
:1011F00040F20000C4F2422000F082800121016030
:10120000FFF72EFA054600BF306880073FF588AF2C
:10121000FFF726FA401B0228F6D9ECE0E068002828
:1012200000F08080052800F09780012800F0988069
:10123000306A20F001003062306A20F0040092E051
:101240000020C4F242200021C0F88014FFF708FA01
:10125000054600BF706A80077FF56CAFFFF700FAA4
:10126000401B0228F6D9C6E00027C4F2422700201E
:101270003866FFF7F5F9022D05460BD1306880017D
:1012800040F1BE80FFF7ECF9401B02284FF003004D
:10129000F4D968E7306880017FF564AFFFF7E0F9C3
:1012A000401B02284FF00300F4D95CE740F208002D
:1012B000C2F20000006844F6D351C1F26201A0FB03
:1012C0000101480A019000BF00BF0198411E00289B
:1012D00001913FF42FAF00BF0198411E00280191FA
:1012E0003FF428AF00BF0198411E002801913FF450
:1012F00021AF00BF0198411E00280191E4D119E7F8
:1013000000210160FFF7ACF9054600BF3068800797
:101310007FF50DAFFFF7A4F9401B02284FF0030043
:10132000F4D920E7306A20F001003062306A20F002
:1013300004003062FFF794F9054641F2883700BF98
:10134000306A800720D5FFF78BF9401BB8424FF079
:101350000300F5D907E700BF306A40F004003062AF
:10136000306A40F001003062FFF77AF9054641F239
:10137000883700BF306A800706D4FFF771F9401B39
:10138000B842F7D937E000BFB8F1000F7FF4D5AE0F
:10139000F06920F08050F061CFE600BF306820F4A3
:1013A00080303060306820F480203060FFF758F9DA
:1013B000054600BF306880037FF59DAEFFF750F90A
:1013C000401B64284FF00300F4D9CCE6306840F4A9
:1013D00080203060306840F480303060FFF740F9A2
:1013E000054600BF306880033FF585AEFFF738F94A
:1013F000401B6428F6D9032002B0BDE8F08100BF8D
:10140000206AB0F5803F05D17168A26821F40031EF
:10141000114371607168626A21F4741110430843CA
:10142000706001203866FFF71BF9044630688001C0
:101430003FF598AEFFF714F9001B02284FF00300A8
:10144000F4D990E6411E0020B0EB116F1CBF0120C3
:1014500070474EF21002CEF2000251604EF6235158
:10146000CEF20001F0230B700721906011607047ED
:10147000B0B590F83C20012A04BF0220B0BD01F1B4
:1014800008053CCDD1E900CE23F47C5322F4705200
:101490001A432EF4F0431A432CF4E0431A4324F485
:1014A000C0431A432A43C96922F4804203681143A6
:1014B0005964002180F83C100846B0BD10B590F882
:1014C0003C20012A4FF0020233D080F83D20026810
:1014D000D2F804E0D2F808C00C682EF07003234361
:1014E00040F2FF74C4F20004A24253600ADCB2F17D
:1014F000804F13D040F20043C4F200039A420DD053
:1015000011E000BF42F60043C4F201039A4205D045
:1015100040F60003C4F200039A4204D149682CF05B
:101520008003194391600121002280F83D1080F86A
:101530003C20104610BD0000B0B586B00068002108
:10154000B0F1804FCDE90411039102911CD040F21B
:101550000041C4F2000188422CD042F60041C4F29E
:101560000101884253D141F21800C4F2020001681F
:1015700041F004010160006800F00400019001984E
:101580004FF440600EE000BF41F21800C4F20200C8
:10159000016841F004010160006800F0040001905E
:1015A00001980F2002900220039040F60000C4F240
:1015B000010027E041F21800C4F20200016840F681
:1015C000000441F0040101600168C4F2010401F06B
:1015D0000401019101990168022541F008010160AF
:1015E000006802A900F0080001900198C020029054
:1015F000204603950595FEF723FF0320CDE902055C
:1016000004F580600221059102A9FEF719FF06B0DA
:10161000B0BD00002DE9F04390F83C30012B04BF31
:101620000220BDE8F0834FEAB202032A3CD8DFE88B
:1016300002F003437FB900BF036842F600461D6A0B
:101640001A6AC4F2010622F001021A621A465C68A4
:1016500052F818CFB3428E68D1F800E025F00205A9
:1016600045EA06050CD1CE68D1E9057824F440742A
:1016700025F00C0526F004063C43354344EA0804F3
:101680002CF0730747EA0E075C609F614F68096999
:101690005F631D629F6947F008079F619F6927F09C
:1016A00004079F61AEE000BF0121002280F83C20CA
:1016B0000846BDE8F08300BF036842F600461D6A95
:1016C0001A6AC4F2010622F010021A621A46D3F80E
:1016D00004C052F8184FB3428E68D1F800E025F0EC
:1016E000200545EA06150FD1CE68D1E905986FF0BF
:1016F000400707EA06162CF4406725F0C00547EAC4
:101700008907354347EA880C24F4E64444EA0E2767
:10171000C3F804C09F614F6809699F631D629F6998
:1017200047F400679F619F6927F480679F6168E0C5
:10173000036842F600461D6A1A6AC4F2010622F4E2
:1017400080721A621A46D3F804C052F81CEFB342F2
:101750008E680C6825F4007545EA06250FD1CE6821
:10176000D1E90598360240F2FF47BE432CF44057BA
:1017700025F4406547EA0917354347EA081C2EF06F
:1017800073072743C3F804C0DF614F680969DF634B
:101790001D62DF6947F00807DF61DF6927F0040792
:1017A000DF612FE0036842F60047D3F820C01A6AD1
:1017B000C4F2010722F480521A621A465C6852F899
:1017C0001C5FD1F800E08E68BB4204D14F6924F45D
:1017D000804444EA87142CF4005747EA063725F47E
:1017E000E64646EA0E265C60DE614E6809691E64C4
:1017F0001F62DF6947F40067DF61DF6927F48067F4
:10180000DF6109021368194311600021002280F88A
:101810003C200846BDE8F083002804BF0120704743
:1018200010B5044690F83D0028B9002084F83C002B
:10183000204600F06FF8022084F83D00206840F256
:10184000FF730268C4F2000342F6004C9842C4F2EF
:10185000010C15DCB0F1804F1AD040F20041C4F207
:101860000001884214D0984218DCB0F1804F1DD09E
:1018700040F20041C4F20001884217D01AE000BFD4
:10188000604505D040F60001C4F200018842EAD16B
:10189000A16822F070020A439842E6DD604505D057
:1018A00040F60001C4F20001884203D1216922F40C
:1018B00040720A43A36922F08001D4F804E0E26890
:1018C000194360450160C262C0F828E002D1616935
:1018D000CCF83010012141610269D20703D00269BE
:1018E00022F001020261002084F8461084F83E10C4
:1018F00084F83F1084F8401084F8411084F84210B6
:1019000084F8431084F8441084F8451084F83D109E
:1019100010BD000083B00068B0F1804F1ED040F2CF
:101920000041C4F20001884228D042F60041C4F2CE
:10193000010188422FD141F21C00C4F2020050F88C
:10194000041C41F4006140F8041C50F8040C00F43D
:1019500000600290029803B0704700BF41F21C0083
:10196000C4F20200016841F001010160006800F06A
:1019700001000190019803B0704700BF41F21C00C4
:10198000C4F20200016841F002010160006800F049
:1019900002000090009803B07047000041B1082990
:1019A00010D0042914BF00F1410200F13F020BE006
:1019B00090F83E20012A1CBF01207047022280F8C7
:1019C0003E2013E000F140021278012A1CBF0120E2
:1019D00070470222082907D0042914BF80F841204B
:1019E00080F83F2002E000BF80F84020006801F04E
:1019F0001F010122036A8A4023EA02010162036A8D
:101A000042F64441C4F201011A43A1F14403984251
:101A100002620FD040F2FF71C4F20001884213DC71
:101A2000B0F1804F1CD040F20041C4F20001884266
:101A300016D01CE00A6842F400420A6040F2FF71CE
:101A4000C4F200018842EBDD42F60041C4F201011C
:101A5000884205D040F60001C4F20001884206D158
:101A6000816801F00701062904BF00207047016862
:101A700041F0010101600020704700007047000044
:101A800070470000B0B582B0044600680168C368C2
:101A9000426901F02F05202D03F0200506D12DB15C
:101AA000204602B0BDE8B04001F00EBB5FEA017C09
:101AB0001EBF02F0010E03F4907212EB0E0255D11C
:101AC000226B012A05D111F0100218BF13F0100289
:101AD00036D10A0622D513F080021FD094F84110A7
:101AE000212941D1A168B1F5805F03D12169002985
:101AF00000F07282216A4A1C226209784160E18CFE
:101B000001390A04E1842FD1C16821F08001C1604C
:101B1000C16841F04001C16002B0B0BD490623D5A3
:101B200013F0400120D0C16821F04001C1602021A4
:101B3000204684F8411002B0BDE8B04000F0ACBCD3
:101B40000021019101680191416801910199416968
:101B5000490600F18F80A18DE28DE38D002B1CBF23
:101B6000891A5FEA01420CD102B0B0BDCA0718BFA2
:101B700013F4807240F038814A0700F13B8140E164
:101B8000206850E8030F226820F4907042E80303B5
:101B9000DBB1206850E8030F226820F4907042E81F
:101BA000030393B1206850E8030F226820F490707B
:101BB00042E803034BB1206850E8030F226820F489
:101BC000907042E80303002BDAD1206850E8050F3B
:101BD000226820F0010042E80503DBB1206850E8EC
:101BE000050F226820F0010042E8050393B1206848
:101BF00050E8050F226820F0010042E805034BB1D0
:101C0000206850E8050F226820F0010042E8050333
:101C1000002BDAD1202084F84200002020632068C5
:101C200050E8030F226820F0100042E80303DBB104
:101C3000206850E8030F226820F0100042E80303F8
:101C400093B1206850E8030F226820F0100042E8AA
:101C500003034BB1206850E8030F226820F0100006
:101C600042E80303002BDAD1022289B220466263E4
:101C7000B4E000BFE16B0A68526893B2002B3FF4F6
:101C800073AFA58DAB42BFF46FAFE28589692029A0
:101C900000F09D8050E8030F216820F4807041E837
:101CA0000302EAB1206850E8030F216820F4807035
:101CB00041E80302A2B1206850E8030F216820F434
:101CC000807041E803025AB1206850E8030F216890
:101CD00020F4807041E8030212B12068DAE700BF07
:101CE000206850E8050F216820F0010041E8050256
:101CF000DAB1206850E8050F216820F0010041E8C2
:101D0000050292B1206850E8050F216820F001001B
:101D100041E805024AB1206850E8050F216820F02B
:101D2000010041E80502002ADAD1206850E8050FD9
:101D3000216820F0400041E80502DAB1206850E84F
:101D4000050F216820F0400041E8050292B12068AB
:101D500050E8050F216820F0400041E805024AB133
:101D6000206850E8050F216820F0400041E8050296
:101D7000002ADAD1202084F8420000202063206865
:101D800050E8030F216820F0100041E80302DAB1A7
:101D9000206850E8030F216820F0100041E803029A
:101DA00092B1206850E8030F216820F0100041E84C
:101DB00003024AB1206850E8030F216820F01000A8
:101DC00041E80302002ADAD1E06BFEF7BBFA0220F9
:101DD0006063A08DE18D401A81B2204602B0BDE85B
:101DE000B040FFF74BBE00BF626C42F0010262647C
:101DF0004A0706D5BEF1000F03D0626C42F0020222
:101E000062648A0706D5BEF1000F03D0626C42F00F
:101E100004026264BCF1000F06D555EA0E0203D03D
:101E2000626C42F008026264626C002A3FF49CAE6D
:101E300011F0200118BF002D03D0204601F044F915
:101E400020684169626C01F0400102F008028918C3
:101E500000F0A28050E8030F216820F4907041E860
:101E60000302C2B3206850E8030F216820F4907089
:101E700041E803027AB3206850E8030F216820F498
:101E8000907041E8030232B3206850E8030F2168E4
:101E900020F4907041E80302EAB12068DAE700BF5D
:101EA000206850E8050F216820F0010041E8050294
:101EB000DAB1206850E8050F216820F0010041E800
:101EC000050292B1206850E8050F216820F001005A
:101ED00041E805024AB1206850E8050F216820F06A
:101EE000010041E80502002ADAD1206B012824D143
:101EF000206850E8030F216820F0100041E8030239
:101F0000DAB1206850E8030F216820F0100041E8A2
:101F1000030292B1206850E8030F216820F01000FE
:101F200041E803024AB1206850E8030F216820F01D
:101F3000100041E80302002ADAD1202084F8420090
:101F4000002020632068416949063FD550E8050F0D
:101F5000216820F0400041E805022AB3206850E8DB
:101F6000050F216820F0400041E80502E2B1206839
:101F700050E8050F216820F0400041E805029AB1C1
:101F8000206850E8050F216820F0400041E8050274
:101F900052B12068DAE700BF2046FFF771FD00204C
:101FA000606402B0B0BD00BFE06B78B143F2BD0128
:101FB000C0F600014163FEF7E9F900283FF4D4AD13
:101FC000E06B416B02B0BDE8B0400847204602B06C
:101FD000BDE8B040FFF754BD216A31F8022B6FF322
:101FE0005F22426021628AE5002804BF0120704719
:101FF00010B5044690F8410028B9002084F840004C
:10200000204600F061F8242084F841002068D4E9DB
:102010000212C36823F40053C360036923F44053DE
:102020001A430261D4E904231143C268194341F2FF
:102030000C639A431143C1604169A26921F4407164
:10204000114343F60002C4F201029042416103D001
:10205000FEF7F6FF02E000BFFFF706F862681921FD
:1020600048439100B0FBF1F048F21F51C5F2EB116B
:10207000A0FB01235A096FF0630302FB0300322324
:1020800003EB0010A0FB0101F02303EA51132068C9
:1020900003EB0212C1F3431111448160016921F481
:1020A00090410161416921F02A014161C16841F417
:1020B0000051C16000202021606484F8411084F840
:1020C0004210606310BD000070B586B0006844F631
:1020D0000001C4F20001002688420596CDE903669E
:1020E000029647D043F60001C4F20101884270D144
:1020F00041F21800C4F20200016840F6004441F4C5
:10210000804101600168C4F2010401F48041019141
:102110000199016802AD41F008010160006829469B
:1021200000F00800019001984020029002200390E6
:10213000032005902046FEF783F9802002900020BE
:10214000CDE9030020462946FEF77AF90420C4F2BF
:1021500001000168002241F0E06141F004010160EA
:1021600025200021FEF750FE2520FEF73DFE06B09B
:1021700070BD00BF41F21800C4F20200416840F691
:10218000004441F4802141604168C4F2010401F43B
:10219000802101910199016802AD41F008010160BF
:1021A0000068294600F00800019001984FF4806013
:1021B000029002200390032005902046FEF740F98C
:1021C0004FF40060CDE90206204629460496FEF74A
:1021D00037F906B070BD000090F84230202B1CBFCC
:1021E0000220704700294FF0010318BF002A01D1D7
:1021F0001846704700230363816222218285C285CD
:10220000436480F842100169006819B1C16841F463
:102210008071C1604169002341F001014161C168E1
:1022200041F02001C16018467047000010B50068F9
:1022300044F60001C4F20001884218BF10BD40F20C
:102240007004C2F200042178207D29B9FA2803D055
:1022500004F1140162E000BF2278617D012A0FD1F0
:10226000AF290DD0002004F8140B40F23820C2F240
:10227000000021460122BDE81040FFF7ADBF00BFBE
:102280002278013222702278172A43D101EB000C08
:10229000A17DE27D237E6144607E1144194408449F
:1022A000A17EE27E0844217F1044627F0844A17F22
:1022B0001044E27F084494F82010104494F8212040
:1022C000084494F82210104494F82320084494F809
:1022D0002410104494F82520084494F82610104443
:1022E00094F82720084494F82810104494F82920E2
:1022F0000844104494F82A10C0B2884208D104F16E
:102300002B0004F114011722FDF75EFF012060701D
:10231000002020702078204400F1140140F2382081
:10232000C2F200000122BDE81040FFF755BF0000D7
:102330002DE9F041044690F8410020281CBF0220FE
:10234000BDE8F0810F4600294FF0010000F08280C7
:102350001646002A08BFBDE8F0814FF00008212092
:102360001D46C4F8448084F84100FEF779F9A6843C
:10237000E684A1680646B1F5805F05D12069002892
:1023800014BF3846B8460746E08CC8B1681C19D05F
:10239000002D61D1216807E017F8010B4860E08C3F
:1023A0000138E084E08C68B3086800064CD5002F43
:1023B000F2D138F8020B00276FF35F20EEE700BF81
:1023C00021681FE0216802E00868000609D4086857
:1023D000000606D4086800065CBF08685FEA006073
:1023E000F2D51FB117F8010B05E000BF38F8020B5A
:1023F00000276FF35F204860E08C0138E084E08CB8
:102400000028E4D1086840061CD4EDB1681C0FD147
:102410000868400616D40868400613D408684006C9
:1024200010D4086840064FF00000F1D50FE000BF5F
:10243000FEF716F9801BA84208D82068C16800681A
:102440004006F5D5002002E0FEF70AF9032020211E
:1024500084F84110BDE8F081216800BF08680006DB
:1024600008D4FEF7FDF8801BA842EFD82168C868A1
:10247000F4E700BF17B117F8010B04E038F8020BBE
:1024800000276FF35F204860E08C0138E084E08C27
:102490000028E3D1B6E7000070470000FEE7000027
:1024A0002DE9F04782B0044600680E460168DDF869
:1024B00028A041F4806101600168DDF82C9041F4AE
:1024C00080711D461746016020464FF00111002221
:1024D0005346CDF8009000F033F958B120680068F9
:1024E000C00544BF4FF400702064032002B0BDE873
:1024F000F08700BF40F202082068C0F2010806F031
:10250000FE0606612046414652464B4600F002FA5E
:1025100020B1012002B0BDE8F08700BF002001908B
:1025200020684A46416901918069514601900198AD
:10253000204600F0A7FA98B9012D08D02068390A82
:102540000161204651464A4600F09CFA40B9206895
:10255000F9B20161204651464A4600F093FA58B15B
:10256000206C0428D5D12068016841F40071016015
:10257000012002B0BDE8F0872068002201685346C0
:1025800041F48071016020464FF00111CDF80090B8
:1025900000F0D6F80028A1D1206846F001010161C1
:1025A0002046414652464B4600F0B4F9002818BF79
:1025B000012002B0BDE8F0872DE9F04383B0044666
:1025C00000680D4601680A9F0B9E41F48071994690
:1025D0009046016020464FF0011100223B460096D4
:1025E00000F0AEF850B120680068C00544BF4FF459
:1025F00000702064032003B0BDE8F083206805F07C
:10260000FE0101610221C0F2010120463A46334633
:1026100000F080F920B1012003B0BDE8F08300BFD5
:102620000020029020683246416902918069394653
:1026300002900298204600F025FA58B1206C042838
:10264000E9D12068016841F400710160012003B004
:10265000BDE8F083B9F1010F0AD020684FEA1821D4
:10266000016120463946324600F00CFA0028E5D1D7
:1026700020685FFA88F10161002003B0BDE8F083B3
:1026800070B50368044653F8140F400711D40E4682
:10269000481C29D086BB00BF1868400527D4FDF729
:1026A000DFFF236853F8140F400739D51868400737
:1026B000F2D5002070BD00BF18684007F9D4186833
:1026C000400514D418684007F3D4186840050ED4A8
:1026D00018684007EDD41868400508D4186840070A
:1026E0004FF0000048BF70BD18684005E4D56FF496
:1026F00080601860042014E0154603E053F8140FBE
:102700004007D6D418684005F1D4FDF7A9FF401B57
:102710002368B042F2D958694007EFD4202000E086
:10272000202000212022216384F83D2084F83E10DF
:10273000226C10432064012084F83C1070BD00001E
:102740002DE9F041054600681E46144601F47F025B
:1027500001338FB242D0DDF81880B2F5803F40F0EF
:10276000878040693840C01BB0FA80F04009A04221
:1027700040F0C8804EB924E040693840C01BB0FA30
:1027800080F04009A04240F0BD80FDF769FFA0EB5A
:1027900008012868B142EFD941693940C91BB1FA33
:1027A00081F14909A142E7D19BE000BF406938406F
:1027B000C01BB0FA80F04009A0424FF0000040F08A
:1027C000A680FDF74DFF286841693940C91BB1FA61
:1027D00081F14909A142E9D183E000BFB2F5803F10
:1027E00024D100BF41693940C91BB1FA81F14909BF
:1027F000A14240F0878041693940C91BB1FA81F19B
:102800004909A14240F07E8041693940C91BB1FAB3
:1028100081F14909A14275D141693940C91BB1FA19
:1028200081F14909A142DDD06CE000BF81693940E6
:10283000C91BB1FA81F14909A14263D181693940CB
:10284000C91BB1FA81F14909A1425BD181693940C3
:10285000C91BB1FA81F14909A14253D181693940BB
:10286000C91BB1FA81F14909A142DFD04AE000BF9A
:1028700080693840C01BB0FA80F04009A04241D1C5
:1028800046B923E080693840C01BB0FA80F04009A7
:10289000A0423BD1FDF7E4FEA0EB08012868B1425D
:1028A000F0D981693940C91BB1FA81F14909A142C6
:1028B000E8D116E080693840C01BB0FA80F04009CA
:1028C000A0424FF0000018BFBDE8F081FDF7C8FE40
:1028D000286881693940C91BB1FA81F14909A142CF
:1028E000E8D100202021286385F83D1085F83E00BE
:1028F000296C41F02001296485F83C000120BDE8E5
:10290000F08100BF0020BDE8F08100BF0020BDE8DD
:10291000F0810000F0B581B0044600681D464369AF
:102920008FB203EA0701B94202D1002001B0F0BD25
:1029300041691646013201F4806125D0002940D159
:10294000CEB100BFFDF78CFE411B2068B14203D918
:1029500041693940B9424BD141693940B942E4D06B
:1029600041694905EED52CE041693940B942DCD0D6
:102970004169490525D4FDF773FE20684169394056
:10298000B942F1D0202024E0D9B941693940B94297
:10299000CBD04169490514D441693940B942C4D00A
:1029A000416949050DD441693940B942BDD04169F9
:1029B000490506D441693940B942B6D04169490553
:1029C000E3D5016841F4007101606FF480614161F9
:1029D000042000212022216384F83D2084F83E1049
:1029E000226C1043206484F83C10012001B0F0BD3B
:1029F0002020EEE770B504460068154650F8143FF5
:102A00005A063DD40E4629B926E000BF50F8141FDF
:102A1000490635D40168C90621D4FDF721FE411BC2
:102A20002068B142F2D941694906EFD40020202143
:102A3000206384F83D1084F83E00206C40F02000B4
:102A400018E000BFFDF70CFE206850F8141F49067F
:102A5000ECD50168490613D40168C906F2D56FF0B8
:102A60001001016000202021206384F83D1084F8CB
:102A70003E00206C2064002084F83C00012070BDE2
:102A8000002070BD70B50368044653F8140F0006AB
:102A900011D40E46481C29D086BB00BF18684005DB
:102AA00027D4FDF7DDFD236853F8140F000639D550
:102AB00018680006F2D5002070BD00BF1868000637
:102AC000F9D41868400514D418680006F3D41868BF
:102AD00040050ED418680006EDD41868400508D4E7
:102AE000186800064FF0000048BF70BD1868400528
:102AF000E4D56FF480601860042014E0154603E00C
:102B000053F8140F0006D6D418684005F1D4FDF729
:102B1000A7FD401B2368B042F2D958690006EFD4E4
:102B2000202000E0202000212022216384F83D2085
:102B300084F83E10226C10432064012084F83C107D
:102B400070BD00002DE9F04186B040F2C4044FF69C
:102B5000FF7002260DF10E01C2F20004CDE900164D
:102B6000029020468021FF2201234FF08008FDF7CC
:102B700039FEBDF80E0042F26021000400BA451A89
:102B800046F6067018BF0125ADF8100004A84FF4F2
:102B90008077CDE90006204680210022012302979C
:102BA000FDF7D0FF4EF60A40ADF812000DF112000D
:102BB000CDE9000620468021052201230297FDF77A
:102BC000C1FF05A8CDE90006204680210622012389
:102BD000ADF814800297FDF7B5FF4DF20700ADF890
:102BE00016000DF11600CDE90006204680210722CF
:102BF00001230297FDF7A6FF284606B0BDE8F08145
:102C0000F0B585B040F2C404022603A8C2F2000465
:102C10004FF6FF75CDE900062046802101220123F1
:102C20000295FDF7DFFDBDF80C00C0BA01F080F998
:102C30004CF2AC51C3F2276101F00EFA4DF20A7169
:102C4000C3F6A33101F062F840F2B407C2F2000704
:102C5000B8600DF10E00CDE9000620468021022269
:102C600001230295FDF7BEFDBDF80E00C0BA01F0CC
:102C70005FF94DF20A71C3F6A32101F0EDF9386056
:102C800004A8CDE9000620468021042201230295F4
:102C9000FDF7A8FDBDF81000C0BA01F049F94FF0EA
:102CA000675101F0D9F978600DF11200CDE9000605
:102CB00020468021032201230295FDF793FDBDF8F4
:102CC0001200C0BA01F034F90021C3F6164101F038
:102CD000C3F9F86005B0F0BD70B584B041F21800DA
:102CE000C4F20200016840F6004441F02001016096
:102CF0000168C4F2010401F020010091009901680B
:102D0000012241F00401016001684FF4704501F0B7
:102D10000401009100990168012641F00801016059
:102D200000684FF4704100F00800009000982046C1
:102D3000FDF790FC00200290022003906946204697
:102D4000CDE90056FDF77CFB04B070BD80B540F2C4
:102D5000C40045F20041C2F20000C4F2000141F695
:102D6000802200234FF4804CC0F2060280E80E005F
:102D7000C0E9033CC0E90533C0E90733FDF776FC41
:102D8000002808BF80BDBDE88040FDF7D5BA00002F
:102D900080B592B040F2181042F600420021C2F213
:102DA0000000C4F2010240F2CF2340F2CF7C4FF08A
:102DB000800E1191CDE90F11CDE90D11CDE90B1167
:102DC000CDE90911CDE90711CDE90511CDE90311CF
:102DD000CDE90111C0E90023C0E9021CC0E90411DA
:102DE000C0F818E0FEF718FD002818BFFDF7A4FA98
:102DF00040F21810C2F2000010A9FEF75FFB002895
:102E000018BFFDF799FA6020099040F2DC500A9053
:102E10000020CDE90B00CDE90D000F9040F2181015
:102E2000C2F2000009A90822FEF7F4FB002818BF2F
:102E3000FDF782FA40F21810C2F2000009A90C2234
:102E4000FEF7E8FB002818BFFDF776FA0020059092
:102E5000CDE90300CDE901004FF40051089040F2A4
:102E600018100691C2F2000001A9FEF701FB00282C
:102E700018BFFDF761FA40F21810C2F20000FEF729
:102E80005BFB12B080BD000080B58AB040F26010DC
:102E90000021C2F200004FF08042472344F61F6C2D
:102EA000CDE90811CDE90611CDE90411C0E90023EF
:102EB000C0E9021C01618161FEF7AEFC002818BF69
:102EC000FDF73AFA40F26010C2F2000008A9FEF7DE
:102ED000F5FA002818BFFDF72FFA6020019040F2A4
:102EE000DC50029000200390059040F26010C2F286
:102EF000000001A90022FEF78DFB002818BFFDF796
:102F00001BFA40F26010C2F2000001A90422FEF791
:102F100081FB002818BFFDF70FFA40F26010C2F2E3
:102F2000000001A90822FEF775FB002818BFFDF775
:102F300003FA40F26010C2F2000001A90C22FEF771
:102F400069FB002818BFFDF7F7F940F26010C2F2E4
:102F50000000FEF7F1FA0AB080BD000080B58AB02B
:102F600040F2A81040F200420021C2F20000C4F278
:102F700000024FF6FF73CDE90811CDE90611CDE946
:102F80000411C0E90021C0E9021301618161FEF76B
:102F900043FC002818BFFDF7CFF940F2A810C2F299
:102FA000000008A9FEF78AFA002818BFFDF7C4F947
:102FB000602001900020CDE90200059040F2A810A9
:102FC000C2F2000001A90022FEF724FB002818BF6E
:102FD000FDF7B2F940F2A810C2F2000001A90422E4
:102FE000FEF718FB002818BFFDF7A6F940F2A8105D
:102FF000C2F2000001A90822FEF70CFB002818BF4E
:10300000FDF79AF940F2A810C2F2000001A90C22C3
:10301000FEF700FB002818BFFDF78EF940F2A8105C
:10302000C2F20000FEF788FA0AB080BD80B540F217
:10303000F01043F60001C2F20000C4F201010023C7
:103040004FF00C0C4FF4E13280E80E00C0E903337E
:10305000C0E905C3C361FEF7C7FF002808BF80BDF4
:10306000BDE88040FDF768B980B540F2382044F6ED
:103070000001C2F20000C4F2000100234FF00C0C6A
:103080004FF4E13280E80E00C0E90333C0E905C324
:10309000C361FEF7A9FF002808BF80BDBDE88040DE
:1030A000FDF74AB9FEE70000FEE7000070470000A8
:1030B00070470000FDF730BE70470000406A0021F5
:1030C000C185C184FEF7DCBC81B090F84210222992
:1030D00020D18368B3F5805F08D10169002965D0EC
:1030E00000F128010A6803685B680AE0014651F8AC
:1030F000282F13B90369002BF5D003685B6803F030
:103100007F0313700A6801320A60C18D01390A0415
:10311000C18501D001B070470168CA6822F0200261
:10312000CA60CA6822F48072CA604A6922F0010249
:103130004A61202280F8422000224263036B012B67
:103140003ED1026351E8031F026821F0100142E8FA
:1031500003130168DBB151E8031F026821F010017D
:1031600042E80313016893B151E8031F026821F09C
:10317000100142E8031301684BB151E8031F0268D4
:1031800021F0100142E803130168002BDAD10A682C
:10319000D20606D5002200920A6800924968009182
:1031A0000099818D01B0FEF769BC00BF0168826A99
:1031B00049686FF35F2122F8021B8262A5E700BF16
:1031C00001B0FFF733B8000040F2F010C2F2000087
:1031D000FEF758BCFEE700009AB0FDF7ABFD0024F7
:1031E0000120CDE91144CDE90F440C9010904FF42B
:1031F000E0100CAE4FF48031022515903046CDE939
:103200000D14CDE91351FDF743FF28B1EFF3108002
:1032100072B600BFFEE700BF0F20CDE907054FF4EF
:103220008060CDE90A0407A802210994FDF728FE71
:1032300020B1EFF3108072B6FEE700BFFFF74CFD40
:10324000FFF784FDFFF7A4FDFFF71EFEFFF786FEE4
:10325000FFF7ECFEFFF708FF40F26014C2F2000433
:1032600020460021FEF79AFB20460421FEF796FB3C
:1032700020460821FEF792FB20460C21FEF78EFB2C
:1032800040F21810C2F200000821FEF787FB206808
:1032900040F2DC5140F2700741638163C163016415
:1032A000C2F2000740F2382007F11401C2F2000018
:1032B0000122FEF791FFFFF745FC06F10E00029098
:1032C00006F12E0001906EE140F26010C2F20000A3
:1032D000D0F80090786800F083F940F2000AC4F258
:1032E000C00A5146834600F0FEFC46F266665C4624
:1032F000C4F20E1600281CBF0024C4F2C0042046ED
:10330000314600F0DBFC00281CBF46F26664C4F2C4
:103310000E14D9F82C00013000F022FE01462046A0
:1033200000F09AFE0021C4F2C8210D4600F0EEFC28
:1033300000F0E2FDB9680590084600F051F95146E9
:103340000446069000F0CFFC00281CBF0024C4F205
:10335000C0042046314600F0B1FC00281CBF46F2F4
:103360006664C4F20E14D9F82C00013000F0F8FDA8
:103370000146204600F070FE294600F0C7FC00F030
:10338000BBFDF9680390084600F02AF9514604464F
:10339000049000F0A8FC00281CBF0024C4F2C00464
:1033A0002046314600F08AFC00281CBF46F26664C5
:1033B000C4F20E14D9F82C00013000F0D1FD014602
:1033C000204600F049FE29462C4600F09FFC00F004
:1033D00093FD39698046084600F002F951460546DA
:1033E00000F081FCAA4600281CBF40F2000AC4F28B
:1033F000C00A5046314600F061FC00281CBF46F26E
:10340000666AC4F20E1AD9F82C00013000F0A8FD4B
:103410000146504600F020FE214600F077FC00F007
:103420006BFD059EC9F83460039CC9F83840C9F8A3
:103430003C80C9F84000D7E90321029B48EA0040DC
:10344000D960B9689A607A68596046EA044140F2E6
:10345000B404C2F200041A606268019BCDF8322005
:10346000196002EB12215860206801EB124101EB58
:103470001261014401EB1021E26801EB1041CDF82B
:10348000360001EB1060104400EB122000EB1240FC
:103490009DF83E10CDF83A2000EB12609DF83F20D9
:1034A00008449DF8401010449DF8412008449DF8C0
:1034B000421010449DF8432008449DF844101044E5
:1034C0009DF8452008449DF8461010449DF847207B
:1034D00008449DF8481010449DF8492008449DF880
:1034E0004A1010449DF84B2008449DF84C1010449D
:1034F0009DF84D20084410445844069900EB1B20C9
:1035000000EB1B40CDF8521000EB1B6008440A464C
:103510009DF8541000EB1220049A08449DF85510B1
:10352000CDF8562008449DF8571010449DF85820B7
:1035300008449DF859101044CDF85A5008449DF89D
:103540005B1028449DF85C2008449DF85D101044F1
:1035500008449DF85E109DF85F2008449DF86010B7
:1035600010449DF8612008449DF8621010449DF8B5
:10357000632008449DF8641010449DF865200844B9
:10358000104457388DF866004FF6AF20ADF8300084
:1035900040F23820C2F200000CA937226423CDF893
:1035A0004EB0FEF7C5FEFFF72BFB787800283FF4FE
:1035B0008BAE00207870D7F82D00D7F8311007F1C6
:1035C000040CD7F83520D7F839308CE80700D7F845
:1035D0003D0040F20C01C2F200013B61086073E65D
:1035E0002DE9F04381B00021C4F2CC2100F034FD7C
:1035F0000021CCF24341044600F06EFB00BB44F2D4
:103600000001C4F29C41204600F05FFB00BB40F289
:103610000008CCF243482046414600F064FBF8B96C
:1036200044F20001CCF22C41204600F047FBB8B92F
:1036300044F20006CCF22C464FF001090020A0E233
:103640000027C4F2C007384601B0BDE8F08300BFD0
:1036500046F26667C4F20E17384601B0BDE8F08343
:1036600044F20008CCF22C482046414600F03BFBD7
:1036700080B944F20001CCF21741204600F02CFB47
:1036800040B144F20006CCF217464FF00209012087
:1036900077E200BF44F20008CCF2174820464146CA
:1036A00000F021FB70B90021CCF2FF31204600F080
:1036B00013FB38B10026CCF2FF364FF0030902208D
:1036C0005FE200BF40F20008CCF2FF3820464146DE
:1036D00000F009FB70B90021CCF2DC31204600F08B
:1036E000FBFA38B10026CCF2DC364FF00409032097
:1036F00047E200BF40F20008CCF2DC3820464146E9
:1037000000F0F1FA70B90021CCF2B131204600F09E
:10371000E3FA38B10026CCF2B1364FF005090420A7
:103720002FE200BF40F20008CCF2B13820464146FB
:1037300000F0D9FA70B90021CCF29131204600F0A6
:10374000CBFA38B10026CCF291364FF006090520AD
:1037500017E200BF40F20008CCF291382046414603
:1037600000F0C1FA70B90021CCF26131204600F0BE
:10377000B3FA38B10026CCF261364FF007090620C3
:10378000FFE100BF40F20008CCF26138204641461C
:1037900000F0A9FA70B90021CCF22E31204600F0D9
:1037A0009BFA38B10026CCF22E364FF008090720DC
:1037B000E7E100BF40F20008CCF22E382046414637
:1037C00000F091FA70B90021CCF2EC21204600F013
:1037D00083FA38B10026CCF2EC264FF00909082014
:1037E000CFE100BF40F20008CCF2EC282046414671
:1037F00000F079FA70B90021CCF28C21204600F05B
:103800006BFA38B10026CCF28C264FF00A09092059
:10381000B7E100BF40F20008CCF28C2820464146B8
:1038200000F061FA70B90021CCF22821204600F0A6
:1038300053FA38B10026CCF228264FF00B090A20A3
:103840009FE100BF40F20008CCF228282046414604
:1038500000F049FA70B90021CCF28011204600F046
:103860003BFA38B10026CCF280164FF00C090B2041
:1038700087E100BF40F20008CCF2801820464146A4
:1038800000F031FA60B920464FF0404100F024FAD0
:1038900030B14FF040464FF00D090C2071E100BFF0
:1038A00020464FF040414FF0404800F01CFA48B924
:1038B0002046002100F010FA20B100264FF00E093A
:1038C0000D205EE12046002100F00DFAB0B140F27B
:1038D0000008C4F2A0082046414600F004FA58BB94
:1038E0000021C4F20421204600F0F6F920B300269E
:1038F000C4F204264FF01209112042E120460021B3
:103900004FF0000800F0E8F970BB204600214FF0AE
:10391000000800F0E1F9002844D10026C4F2A00616
:103920002046314600F0D8F90028D0D04FF01109D8
:103930004FF00008102024E140F20008C4F20428EF
:103940002046414600F0CFF9A0B90021C4F2A821D9
:10395000204600F0C1F968B10026C4F2A8264FF055
:10396000130912200DE100BF4FF00F090E200026B1
:1039700007E100BF40F20008C4F2A82820464146F3
:1039800000F0B1F9A0B90021C4F21A31204600F0CC
:10399000A3F968B10026C4F21A364FF014091320B7
:1039A000EFE000BF4FF010090F200026E9E000BF54
:1039B00040F20008C4F21A382046414600F093F95C
:1039C00070B90021C4F26E31204600F085F938B19B
:1039D0000026C4F26E364FF015091420D1E000BF66
:1039E00040F20008C4F26E382046414600F07BF9F0
:1039F00080B948F20001C4F2A631204600F06CF90B
:103A000040B148F20006C4F2A6364FF01609152060
:103A1000B7E000BF48F20008C4F2A638204641468D
:103A200000F061F970B90021C4F2E031204600F0E5
:103A300053F938B10026C4F2E0364FF017091620CA
:103A40009FE000BF40F20008C4F2E0382046414643
:103A500000F049F980B944F20001C4F20E41204659
:103A600000F03AF940B144F20006C4F20E464FF0BD
:103A70001809172085E000BF44F20008C4F20E4880
:103A80002046414600F02FF970B90021C4F22F41C1
:103A9000204600F021F938B10026C4F22F464FF03D
:103AA000190918206DE000BF40F20008C4F22F4849
:103AB0002046414600F017F980B948F20001C4F2EF
:103AC0004E41204600F008F940B148F20006C4F229
:103AD0004E464FF01A09192053E000BF48F2000883
:103AE000C4F24E482046414600F0FDF880B948F245
:103AF0000001C4F27541204600F0EEF840B148F2F2
:103B00000006C4F275464FF01B091A2039E000BFC9
:103B100048F20008C4F275482046414600F0E3F838
:103B200080B948F20001C4F28941204600F0D4F87F
:103B300040B148F20006C4F289464FF01C091B2030
:103B40001FE000BF48F20008C4F289482046414601
:103B500000F0C9F800270028C4F2F0077FF473AD25
:103B600044F20001C4F29C41204600F0B5F8002860
:103B70003FF469AD44F20006C4F29C464FF01D09C3
:103B80001C2044F20435C0F6000555F8207030467C
:103B9000414600F02DFB0021064600F081F8002888
:103BA0007FF451AD55F829502046414600F020FBE6
:103BB00004462846394600F01BFB0146204600F02B
:103BC0004BFA314600F0A2F80146384600F006F8FC
:103BD0000746384601B0BDE8F083000090EA010FC7
:103BE00048BF81F0004100F10A83421A3CBF801AAD
:103BF00089184FEAD052A2EBD1534FF07F4C1CEA08
:103C0000410F18BF9CEA026F00F03B804FF0004C60
:103C10004CEA00204CEA012121FA03FC10EB0C0CC9
:103C20001ED202F1FF325FEA1C2040EBC25038BFC7
:103C300070471CF07F0F4FEA400C18BFBCF17F4F5C
:103C400038BF7047C3F12003994008BF20F001003E
:103C5000BCF17F4F38BF7047A0F1C04000F0C3BA3D
:103C60004FEA3C00000A40EBC25028BF1CF0FF0F97
:103C70004FEA400CE6D018BFBCF17F4F38BF704709
:103C8000EAE79CEA026F05D010EA5C0F08BF00F07B
:103C90000040704710B500F060FA00BF64FBBE3E04
:103CA00010B500F0F5F80CBF0120002010BD10B5D4
:103CB00000F0EEF814BF0120002010BD10B500F098
:103CC00063F98CBF0120002010BD10B500F05CF935
:103CD0002CBF0120002010BD10B500F089F994BF61
:103CE0000120002010BD10B500F082F934BF012082
:103CF000002010BD401058BFC0F14040491058BFCF
:103D0000C1F140418142EFF3008070474FF47F0CD6
:103D10001CEAD0121EBF1CEAD11392EA0C0F93EAE0
:103D20000C0F00F0858090EA010F48BF42F48072CA
:103D300040F4000C41F400002CF07F4120F07F4063
:103D400000B5A2EB030281420FF2081CACEB504E0F
:103D50009EF800E0C0F100004FEA4E0E00FB0EFCA2
:103D600038BF49004FEA2C1C0CFB0EF34FEACE1E65
:103D70000EEB635E4FEA112C0EFB0CFC4FEAC121E7
:103D80004FEA1C5300FB031102F5FA024FEA112C13
:103D90000EFB0CFC4FEA01314FEADC4C00FB0C112E
:103DA00042EB2242C14228BF09184CEB03335DF8B5
:103DB00004EB10EB410143EBC250B2F57C0F38BF6E
:103DC000704729D512F0F00F1CBF00F1C04000F081
:103DD00000407047008182838485868788898B8C28
:103DE0008D8E8F919293959697999A9C9D9FA0A264
:103DF000A3A5A7A8AAACAEB0B2B3B5B7B9BCBEC0B4
:103E0000C2C5C7C9CCCED1D4D7D9DCDFE2E6E9EC54
:103E1000F0F3F7FAFE0000004FEA400C0CF1807C52
:103E2000BCF17E4F28BF7047B0F1C04000F0DBB955
:103E30000CEAD11390EA010F48BF42F48072624548
:103E400038BF634507D213F47F0F16D080EA010014
:103E500000F00040704710B500F07FF9097EFC3E8D
:103E600000F005B880EA010000F00040704780EAE9
:103E7000010000F0004000F0B6B912F47F0F04BF5B
:103E80000248704780EA010000F0ADB90000C07F31
:103E900050EA010C00F113801CF5000F58BFBCF56F
:103EA000000F01D48842704707D710F5000F58BFA4
:103EB00011F5000F15D488427047894270471CF5F0
:103EC000000F04D5BCF5000FF7D5814270474FF0C5
:103ED000807C1CEB400F38BF1CEB410F01D28142AC
:103EE000704710B500F039F9922449004FF00050A6
:103EF0004FF08051FFF7FEBE41000B0ED3F19E0242
:103F000008D950F400034FEA032323FA02F048BF14
:103F10004042704710B500F020F900BF499224805C
:103F2000002070476FF0004282EA200070470000D6
:103F300010F0004148BF4042B0FA80F310FA03F29B
:103F4000C3F19D030BD051EAC35101EB122053067C
:103F500038BF704700F1010008BF20F00100704732
:103F6000B0FA80F310FA03F2C3F19D030AD0D90529
:103F700001EB1220530638BF704700F1010008BF63
:103F800020F001007047000050EA010C00F113809E
:103F90001CF5000F58BFBCF5000F01D488427047D4
:103FA00007D710F5000F58BF11F5000F15D4884240
:103FB0007047894270471CF5000F04D5BCF5000F0F
:103FC000F7D5814270474FF0807C1CEB400F38BF23
:103FD0001CEB410F01D28142704710B500F0BDF8D3
:103FE000922449004FF080504FF00051FFF782BEFD
:103FF00050EA010C00F113801CF5000F58BFBCF50E
:10400000000F01D48842704707D710F5000F58BF42
:1040100011F5000F15D488427047894270471CF58E
:10402000000F04D5BCF5000FF7D5814270474FF063
:10403000807C1CEB400F38BF1CEB410F01D281424A
:10404000704710B500F089F8922449004FF00050F5
:104050004FF08051FFF74EBE4FF47F0C1CEAD01298
:104060001EBF1CEAD11392EA0C0F93EA0C0F00F06A
:10407000478090EA010F48BF42F480724FF0004C35
:104080004CEA00204CEA012102EB0302A0FB0113E1
:10409000A2F50002002918BF43F001035B0028BF0E
:1040A0004FEA330342EB22425FEA132C4CEBC2503F
:1040B0002EBFBCEB436FB2F57C0F70474FEA036C29
:1040C000BCF1004F08BF20F00100B2F57C0F38BFF3
:1040D00070470BD582F0FF0212F5803FC8BF7047D2
:1040E00000F1C040D8BF00F00040704700F5000C60
:1040F0005FEA4C0C48BF7047B0F1C04000F073B8A5
:104100000CEAD11390EA010F48BF42F48072624575
:1041100038BF634504D280EA010000F000407047D8
:1041200010B500F01AF800BF8900013E00F007B892
:1041300000F009B85FEA410C5FEA1C6C08D080EA25
:10414000010000F050B85FEA400C5FEA1C6CF6D149
:104150004FF00040A0F5800070470EF1020E2EF0E7
:10416000030E5EF8044B244204D44FEA4102B2F13C
:104170007F4F11D84FEA4003B3F17F4F0CD80ED1D7
:104180004FEAD07C0CEB4C0C0CF1020CB2F17F4FDF
:1041900008BF4CEBD17C04E04FF0080C01E04FEA83
:1041A000D17C0CEB4C0324FA03F404F00704B4F1C3
:1041B000040C06D20EEB840CBDE810404CF0010C50
:1041C0006047DFE80CF0070802024FF00040A0F55E
:1041D000800010BD0846420018BFD2F1807288BF2F
:1041E00000F0004010BDFF2141EAD050C0057047EB
:1041F00090EA010F48BF81F000413FF5F6AC421A4A
:1042000004D882F00042A0EB020011444FEAD052E1
:10421000A2EBD1534FF07F4C1CEA410F18BF9CEA30
:10422000026F4AD04FF0004C4CEA00204CEA0121CA
:1042300021FA03FCB0EB0C0C0FD412F0FE0F36D0B9
:104240005FEA4C001DD5001240EBC25038BF7047EA
:104250001CF03F0F18BF70470BE05FEA1C20A2F173
:10426000010240EBC25038BF70471CF07F0F18BFEF
:104270007047C3F12003994014BF401E20F0010095
:1042800070474FEA1223800808BF7047B0FA80FCDD
:10429000A2EB0C02CCF1280C60FA0CF093EA122F7E
:1042A00004BF00EBC25070474FEAC3707047130A57
:1042B0005FEADC1008BF7047F6E79CEA026F04D0A3
:1042C00010EA5C0F08BF0020704710B5FFF745FFEC
:1042D00040DFF63E81F00040704700000000000023
:1042E00000000102030406070809000000000102A3
:1042F0000304010202030405060708090A0B0C0D5A
:104300000E0F10100000C0403333C3406666C64035
:104310009A99C940CDCCCC400000D0403333D34033
:104320006666D6409A99D940CDCCDC400000E0408A
:104330003333E3406666E6409A99E940CDCCEC40E1
:104340000000F0403333F3406666F6409A99F94036
:10435000CDCCFC40000000419A9901413333034128
:10436000CDCC044166660641000008419A99094196
:1043700033330B41CDCC0C4166660E41A04300089F
:10438000000000201000000028010008B0430008D1
:104390001000002078080000440100080000000020
:1043A000010000001000000000127A000000B4427A
:04000005080000ED02
:00000001FF
